{
  "_format": "hh-sol-artifact-1",
  "contractName": "NFT",
  "sourceName": "contracts/NFT.sol",
  "abi": [
    {
      "inputs": [],
      "stateMutability": "nonpayable",
      "type": "constructor"
    },
    {
      "anonymous": false,
      "inputs": [
        {
          "indexed": true,
          "internalType": "address",
          "name": "owner",
          "type": "address"
        },
        {
          "indexed": true,
          "internalType": "address",
          "name": "approved",
          "type": "address"
        },
        {
          "indexed": true,
          "internalType": "uint256",
          "name": "tokenId",
          "type": "uint256"
        }
      ],
      "name": "Approval",
      "type": "event"
    },
    {
      "anonymous": false,
      "inputs": [
        {
          "indexed": true,
          "internalType": "address",
          "name": "owner",
          "type": "address"
        },
        {
          "indexed": true,
          "internalType": "address",
          "name": "operator",
          "type": "address"
        },
        {
          "indexed": false,
          "internalType": "bool",
          "name": "approved",
          "type": "bool"
        }
      ],
      "name": "ApprovalForAll",
      "type": "event"
    },
    {
      "anonymous": false,
      "inputs": [
        {
          "indexed": true,
          "internalType": "address",
          "name": "from",
          "type": "address"
        },
        {
          "indexed": true,
          "internalType": "address",
          "name": "to",
          "type": "address"
        },
        {
          "indexed": true,
          "internalType": "uint256",
          "name": "tokenId",
          "type": "uint256"
        }
      ],
      "name": "Transfer",
      "type": "event"
    },
    {
      "inputs": [
        {
          "internalType": "address",
          "name": "to",
          "type": "address"
        },
        {
          "internalType": "uint256",
          "name": "tokenId",
          "type": "uint256"
        }
      ],
      "name": "approve",
      "outputs": [],
      "stateMutability": "nonpayable",
      "type": "function"
    },
    {
      "inputs": [
        {
          "internalType": "address",
          "name": "owner",
          "type": "address"
        }
      ],
      "name": "balanceOf",
      "outputs": [
        {
          "internalType": "uint256",
          "name": "",
          "type": "uint256"
        }
      ],
      "stateMutability": "view",
      "type": "function"
    },
    {
      "inputs": [
        {
          "internalType": "uint256",
          "name": "tokenId",
          "type": "uint256"
        }
      ],
      "name": "getApproved",
      "outputs": [
        {
          "internalType": "address",
          "name": "",
          "type": "address"
        }
      ],
      "stateMutability": "view",
      "type": "function"
    },
    {
      "inputs": [
        {
          "internalType": "address",
          "name": "owner",
          "type": "address"
        },
        {
          "internalType": "address",
          "name": "operator",
          "type": "address"
        }
      ],
      "name": "isApprovedForAll",
      "outputs": [
        {
          "internalType": "bool",
          "name": "",
          "type": "bool"
        }
      ],
      "stateMutability": "view",
      "type": "function"
    },
    {
      "inputs": [],
      "name": "name",
      "outputs": [
        {
          "internalType": "string",
          "name": "",
          "type": "string"
        }
      ],
      "stateMutability": "view",
      "type": "function"
    },
    {
      "inputs": [
        {
          "internalType": "uint256",
          "name": "tokenId",
          "type": "uint256"
        }
      ],
      "name": "ownerOf",
      "outputs": [
        {
          "internalType": "address",
          "name": "",
          "type": "address"
        }
      ],
      "stateMutability": "view",
      "type": "function"
    },
    {
      "inputs": [
        {
          "internalType": "address",
          "name": "to",
          "type": "address"
        },
        {
          "internalType": "string",
          "name": "uri",
          "type": "string"
        }
      ],
      "name": "safeMint",
      "outputs": [],
      "stateMutability": "nonpayable",
      "type": "function"
    },
    {
      "inputs": [
        {
          "internalType": "address",
          "name": "from",
          "type": "address"
        },
        {
          "internalType": "address",
          "name": "to",
          "type": "address"
        },
        {
          "internalType": "uint256",
          "name": "tokenId",
          "type": "uint256"
        }
      ],
      "name": "safeTransferFrom",
      "outputs": [],
      "stateMutability": "nonpayable",
      "type": "function"
    },
    {
      "inputs": [
        {
          "internalType": "address",
          "name": "from",
          "type": "address"
        },
        {
          "internalType": "address",
          "name": "to",
          "type": "address"
        },
        {
          "internalType": "uint256",
          "name": "tokenId",
          "type": "uint256"
        },
        {
          "internalType": "bytes",
          "name": "data",
          "type": "bytes"
        }
      ],
      "name": "safeTransferFrom",
      "outputs": [],
      "stateMutability": "nonpayable",
      "type": "function"
    },
    {
      "inputs": [
        {
          "internalType": "address",
          "name": "operator",
          "type": "address"
        },
        {
          "internalType": "bool",
          "name": "approved",
          "type": "bool"
        }
      ],
      "name": "setApprovalForAll",
      "outputs": [],
      "stateMutability": "nonpayable",
      "type": "function"
    },
    {
      "inputs": [
        {
          "internalType": "bytes4",
          "name": "interfaceId",
          "type": "bytes4"
        }
      ],
      "name": "supportsInterface",
      "outputs": [
        {
          "internalType": "bool",
          "name": "",
          "type": "bool"
        }
      ],
      "stateMutability": "view",
      "type": "function"
    },
    {
      "inputs": [],
      "name": "symbol",
      "outputs": [
        {
          "internalType": "string",
          "name": "",
          "type": "string"
        }
      ],
      "stateMutability": "view",
      "type": "function"
    },
    {
      "inputs": [
        {
          "internalType": "uint256",
          "name": "index",
          "type": "uint256"
        }
      ],
      "name": "tokenByIndex",
      "outputs": [
        {
          "internalType": "uint256",
          "name": "",
          "type": "uint256"
        }
      ],
      "stateMutability": "view",
      "type": "function"
    },
    {
      "inputs": [
        {
          "internalType": "address",
          "name": "owner",
          "type": "address"
        },
        {
          "internalType": "uint256",
          "name": "index",
          "type": "uint256"
        }
      ],
      "name": "tokenOfOwnerByIndex",
      "outputs": [
        {
          "internalType": "uint256",
          "name": "",
          "type": "uint256"
        }
      ],
      "stateMutability": "view",
      "type": "function"
    },
    {
      "inputs": [
        {
          "internalType": "uint256",
          "name": "tokenId",
          "type": "uint256"
        }
      ],
      "name": "tokenURI",
      "outputs": [
        {
          "internalType": "string",
          "name": "",
          "type": "string"
        }
      ],
      "stateMutability": "view",
      "type": "function"
    },
    {
      "inputs": [],
      "name": "totalSupply",
      "outputs": [
        {
          "internalType": "uint256",
          "name": "",
          "type": "uint256"
        }
      ],
      "stateMutability": "view",
      "type": "function"
    },
    {
      "inputs": [
        {
          "internalType": "address",
          "name": "from",
          "type": "address"
        },
        {
          "internalType": "address",
          "name": "to",
          "type": "address"
        },
        {
          "internalType": "uint256",
          "name": "tokenId",
          "type": "uint256"
        }
      ],
      "name": "transferFrom",
      "outputs": [],
      "stateMutability": "nonpayable",
      "type": "function"
    }
  ],
  "bytecode": "0x60806040523480156200001157600080fd5b506040518060400160405280600681526020017f4d79204e465400000000000000000000000000000000000000000000000000008152506040518060400160405280600381526020017f4e4654000000000000000000000000000000000000000000000000000000000081525081600090816200008f919062000324565b508060019081620000a1919062000324565b5050506200040b565b600081519050919050565b7f4e487b7100000000000000000000000000000000000000000000000000000000600052604160045260246000fd5b7f4e487b7100000000000000000000000000000000000000000000000000000000600052602260045260246000fd5b600060028204905060018216806200012c57607f821691505b602082108103620001425762000141620000e4565b5b50919050565b60008190508160005260206000209050919050565b60006020601f8301049050919050565b600082821b905092915050565b600060088302620001ac7fffffffffffffffffffffffffffffffffffffffffffffffffffffffffffffffff826200016d565b620001b886836200016d565b95508019841693508086168417925050509392505050565b6000819050919050565b6000819050919050565b600062000205620001ff620001f984620001d0565b620001da565b620001d0565b9050919050565b6000819050919050565b6200022183620001e4565b6200023962000230826200020c565b8484546200017a565b825550505050565b600090565b6200025062000241565b6200025d81848462000216565b505050565b5b8181101562000285576200027960008262000246565b60018101905062000263565b5050565b601f821115620002d4576200029e8162000148565b620002a9846200015d565b81016020851015620002b9578190505b620002d1620002c8856200015d565b83018262000262565b50505b505050565b600082821c905092915050565b6000620002f960001984600802620002d9565b1980831691505092915050565b6000620003148383620002e6565b9150826002028217905092915050565b6200032f82620000aa565b67ffffffffffffffff8111156200034b576200034a620000b5565b5b62000357825462000113565b6200036482828562000289565b600060209050601f8311600181146200039c576000841562000387578287015190505b62000393858262000306565b86555062000403565b601f198416620003ac8662000148565b60005b82811015620003d657848901518255600182019150602085019450602081019050620003af565b86831015620003f65784890151620003f2601f891682620002e6565b8355505b6001600288020188555050505b505050505050565b613547806200041b6000396000f3fe608060405234801561001057600080fd5b506004361061010b5760003560e01c80634f6ccce7116100a2578063a22cb46511610071578063a22cb465146102de578063b88d4fde146102fa578063c87b56dd14610316578063d204c45e14610346578063e985e9c5146103625761010b565b80634f6ccce7146102305780636352211e1461026057806370a082311461029057806395d89b41146102c05761010b565b806318160ddd116100de57806318160ddd146101aa57806323b872dd146101c85780632f745c59146101e457806342842e0e146102145761010b565b806301ffc9a71461011057806306fdde0314610140578063081812fc1461015e578063095ea7b31461018e575b600080fd5b61012a6004803603810190610125919061218b565b610392565b60405161013791906121d3565b60405180910390f35b6101486103a4565b604051610155919061227e565b60405180910390f35b610178600480360381019061017391906122d6565b610436565b6040516101859190612344565b60405180910390f35b6101a860048036038101906101a3919061238b565b61047c565b005b6101b2610593565b6040516101bf91906123da565b60405180910390f35b6101e260048036038101906101dd91906123f5565b6105a0565b005b6101fe60048036038101906101f9919061238b565b610600565b60405161020b91906123da565b60405180910390f35b61022e600480360381019061022991906123f5565b6106a5565b005b61024a600480360381019061024591906122d6565b6106c5565b60405161025791906123da565b60405180910390f35b61027a600480360381019061027591906122d6565b610736565b6040516102879190612344565b60405180910390f35b6102aa60048036038101906102a59190612448565b6107bc565b6040516102b791906123da565b60405180910390f35b6102c8610873565b6040516102d5919061227e565b60405180910390f35b6102f860048036038101906102f391906124a1565b610905565b005b610314600480360381019061030f9190612616565b61091b565b005b610330600480360381019061032b91906122d6565b61097d565b60405161033d919061227e565b60405180910390f35b610360600480360381019061035b919061273a565b61098f565b005b61037c60048036038101906103779190612796565b6109c0565b60405161038991906121d3565b60405180910390f35b600061039d82610a54565b9050919050565b6060600080546103b390612805565b80601f01602080910402602001604051908101604052809291908181526020018280546103df90612805565b801561042c5780601f106104015761010080835404028352916020019161042c565b820191906000526020600020905b81548152906001019060200180831161040f57829003601f168201915b5050505050905090565b600061044182610ace565b6004600083815260200190815260200160002060009054906101000a900473ffffffffffffffffffffffffffffffffffffffff169050919050565b600061048782610736565b90508073ffffffffffffffffffffffffffffffffffffffff168373ffffffffffffffffffffffffffffffffffffffff16036104f7576040517f08c379a00000000000000000000000000000000000000000000000000000000081526004016104ee906128a8565b60405180910390fd5b8073ffffffffffffffffffffffffffffffffffffffff16610516610b19565b73ffffffffffffffffffffffffffffffffffffffff16148061054557506105448161053f610b19565b6109c0565b5b610584576040517f08c379a000000000000000000000000000000000000000000000000000000000815260040161057b9061293a565b60405180910390fd5b61058e8383610b21565b505050565b6000600980549050905090565b6105b16105ab610b19565b82610bda565b6105f0576040517f08c379a00000000000000000000000000000000000000000000000000000000081526004016105e7906129cc565b60405180910390fd5b6105fb838383610c6f565b505050565b600061060b836107bc565b821061064c576040517f08c379a000000000000000000000000000000000000000000000000000000000815260040161064390612a5e565b60405180910390fd5b600760008473ffffffffffffffffffffffffffffffffffffffff1673ffffffffffffffffffffffffffffffffffffffff168152602001908152602001600020600083815260200190815260200160002054905092915050565b6106c08383836040518060200160405280600081525061091b565b505050565b60006106cf610593565b8210610710576040517f08c379a000000000000000000000000000000000000000000000000000000000815260040161070790612af0565b60405180910390fd5b6009828154811061072457610723612b10565b5b90600052602060002001549050919050565b60008061074283610f68565b9050600073ffffffffffffffffffffffffffffffffffffffff168173ffffffffffffffffffffffffffffffffffffffff16036107b3576040517f08c379a00000000000000000000000000000000000000000000000000000000081526004016107aa90612b8b565b60405180910390fd5b80915050919050565b60008073ffffffffffffffffffffffffffffffffffffffff168273ffffffffffffffffffffffffffffffffffffffff160361082c576040517f08c379a000000000000000000000000000000000000000000000000000000000815260040161082390612c1d565b60405180910390fd5b600360008373ffffffffffffffffffffffffffffffffffffffff1673ffffffffffffffffffffffffffffffffffffffff168152602001908152602001600020549050919050565b60606001805461088290612805565b80601f01602080910402602001604051908101604052809291908181526020018280546108ae90612805565b80156108fb5780601f106108d0576101008083540402835291602001916108fb565b820191906000526020600020905b8154815290600101906020018083116108de57829003601f168201915b5050505050905090565b610917610910610b19565b8383610fa5565b5050565b61092c610926610b19565b83610bda565b61096b576040517f08c379a0000000000000000000000000000000000000000000000000000000008152600401610962906129cc565b60405180910390fd5b61097784848484611111565b50505050565b60606109888261116d565b9050919050565b600061099b600b61127f565b90506109a7600b61128d565b6109b183826112a3565b6109bb81836112c1565b505050565b6000600560008473ffffffffffffffffffffffffffffffffffffffff1673ffffffffffffffffffffffffffffffffffffffff16815260200190815260200160002060008373ffffffffffffffffffffffffffffffffffffffff1673ffffffffffffffffffffffffffffffffffffffff16815260200190815260200160002060009054906101000a900460ff16905092915050565b60007f780e9d63000000000000000000000000000000000000000000000000000000007bffffffffffffffffffffffffffffffffffffffffffffffffffffffff1916827bffffffffffffffffffffffffffffffffffffffffffffffffffffffff19161480610ac75750610ac68261132e565b5b9050919050565b610ad781611410565b610b16576040517f08c379a0000000000000000000000000000000000000000000000000000000008152600401610b0d90612b8b565b60405180910390fd5b50565b600033905090565b816004600083815260200190815260200160002060006101000a81548173ffffffffffffffffffffffffffffffffffffffff021916908373ffffffffffffffffffffffffffffffffffffffff160217905550808273ffffffffffffffffffffffffffffffffffffffff16610b9483610736565b73ffffffffffffffffffffffffffffffffffffffff167f8c5be1e5ebec7d5bd14f71427d1e84f3dd0314c0f7b2291e5b200ac8c7c3b92560405160405180910390a45050565b600080610be683610736565b90508073ffffffffffffffffffffffffffffffffffffffff168473ffffffffffffffffffffffffffffffffffffffff161480610c285750610c2781856109c0565b5b80610c6657508373ffffffffffffffffffffffffffffffffffffffff16610c4e84610436565b73ffffffffffffffffffffffffffffffffffffffff16145b91505092915050565b8273ffffffffffffffffffffffffffffffffffffffff16610c8f82610736565b73ffffffffffffffffffffffffffffffffffffffff1614610ce5576040517f08c379a0000000000000000000000000000000000000000000000000000000008152600401610cdc90612caf565b60405180910390fd5b600073ffffffffffffffffffffffffffffffffffffffff168273ffffffffffffffffffffffffffffffffffffffff1603610d54576040517f08c379a0000000000000000000000000000000000000000000000000000000008152600401610d4b90612d41565b60405180910390fd5b610d618383836001611451565b8273ffffffffffffffffffffffffffffffffffffffff16610d8182610736565b73ffffffffffffffffffffffffffffffffffffffff1614610dd7576040517f08c379a0000000000000000000000000000000000000000000000000000000008152600401610dce90612caf565b60405180910390fd5b6004600082815260200190815260200160002060006101000a81549073ffffffffffffffffffffffffffffffffffffffff02191690556001600360008573ffffffffffffffffffffffffffffffffffffffff1673ffffffffffffffffffffffffffffffffffffffff168152602001908152602001600020600082825403925050819055506001600360008473ffffffffffffffffffffffffffffffffffffffff1673ffffffffffffffffffffffffffffffffffffffff16815260200190815260200160002060008282540192505081905550816002600083815260200190815260200160002060006101000a81548173ffffffffffffffffffffffffffffffffffffffff021916908373ffffffffffffffffffffffffffffffffffffffff160217905550808273ffffffffffffffffffffffffffffffffffffffff168473ffffffffffffffffffffffffffffffffffffffff167fddf252ad1be2c89b69c2b068fc378daa952ba7f163c4a11628f55a4df523b3ef60405160405180910390a4610f638383836001611463565b505050565b60006002600083815260200190815260200160002060009054906101000a900473ffffffffffffffffffffffffffffffffffffffff169050919050565b8173ffffffffffffffffffffffffffffffffffffffff168373ffffffffffffffffffffffffffffffffffffffff1603611013576040517f08c379a000000000000000000000000000000000000000000000000000000000815260040161100a90612dad565b60405180910390fd5b80600560008573ffffffffffffffffffffffffffffffffffffffff1673ffffffffffffffffffffffffffffffffffffffff16815260200190815260200160002060008473ffffffffffffffffffffffffffffffffffffffff1673ffffffffffffffffffffffffffffffffffffffff16815260200190815260200160002060006101000a81548160ff0219169083151502179055508173ffffffffffffffffffffffffffffffffffffffff168373ffffffffffffffffffffffffffffffffffffffff167f17307eab39ab6107e8899845ad3d59bd9653f200f220920489ca2b5937696c318360405161110491906121d3565b60405180910390a3505050565b61111c848484610c6f565b61112884848484611469565b611167576040517f08c379a000000000000000000000000000000000000000000000000000000000815260040161115e90612e3f565b60405180910390fd5b50505050565b606061117882610ace565b600060066000848152602001908152602001600020805461119890612805565b80601f01602080910402602001604051908101604052809291908181526020018280546111c490612805565b80156112115780601f106111e657610100808354040283529160200191611211565b820191906000526020600020905b8154815290600101906020018083116111f457829003601f168201915b5050505050905060006112226115f0565b9050600081510361123757819250505061127a565b60008251111561126c578082604051602001611254929190612e9b565b6040516020818303038152906040529250505061127a565b61127584611607565b925050505b919050565b600081600001549050919050565b6001816000016000828254019250508190555050565b6112bd82826040518060200160405280600081525061166f565b5050565b6112ca82611410565b611309576040517f08c379a000000000000000000000000000000000000000000000000000000000815260040161130090612f31565b60405180910390fd5b8060066000848152602001908152602001600020908161132991906130fd565b505050565b60007f80ac58cd000000000000000000000000000000000000000000000000000000007bffffffffffffffffffffffffffffffffffffffffffffffffffffffff1916827bffffffffffffffffffffffffffffffffffffffffffffffffffffffff191614806113f957507f5b5e139f000000000000000000000000000000000000000000000000000000007bffffffffffffffffffffffffffffffffffffffffffffffffffffffff1916827bffffffffffffffffffffffffffffffffffffffffffffffffffffffff1916145b806114095750611408826116ca565b5b9050919050565b60008073ffffffffffffffffffffffffffffffffffffffff1661143283610f68565b73ffffffffffffffffffffffffffffffffffffffff1614159050919050565b61145d84848484611734565b50505050565b50505050565b600061148a8473ffffffffffffffffffffffffffffffffffffffff16611892565b156115e3578373ffffffffffffffffffffffffffffffffffffffff1663150b7a026114b3610b19565b8786866040518563ffffffff1660e01b81526004016114d59493929190613224565b6020604051808303816000875af192505050801561151157506040513d601f19601f8201168201806040525081019061150e9190613285565b60015b611593573d8060008114611541576040519150601f19603f3d011682016040523d82523d6000602084013e611546565b606091505b50600081510361158b576040517f08c379a000000000000000000000000000000000000000000000000000000000815260040161158290612e3f565b60405180910390fd5b805181602001fd5b63150b7a0260e01b7bffffffffffffffffffffffffffffffffffffffffffffffffffffffff1916817bffffffffffffffffffffffffffffffffffffffffffffffffffffffff1916149150506115e8565b600190505b949350505050565b606060405180602001604052806000815250905090565b606061161282610ace565b600061161c6115f0565b9050600081511161163c5760405180602001604052806000815250611667565b80611646846118b5565b604051602001611657929190612e9b565b6040516020818303038152906040525b915050919050565b6116798383611983565b6116866000848484611469565b6116c5576040517f08c379a00000000000000000000000000000000000000000000000000000000081526004016116bc90612e3f565b60405180910390fd5b505050565b60007f01ffc9a7000000000000000000000000000000000000000000000000000000007bffffffffffffffffffffffffffffffffffffffffffffffffffffffff1916827bffffffffffffffffffffffffffffffffffffffffffffffffffffffff1916149050919050565b61174084848484611ba0565b6001811115611784576040517f08c379a000000000000000000000000000000000000000000000000000000000815260040161177b90613324565b60405180910390fd5b6000829050600073ffffffffffffffffffffffffffffffffffffffff168573ffffffffffffffffffffffffffffffffffffffff16036117cb576117c681611cc6565b61180a565b8373ffffffffffffffffffffffffffffffffffffffff168573ffffffffffffffffffffffffffffffffffffffff1614611809576118088582611d0f565b5b5b600073ffffffffffffffffffffffffffffffffffffffff168473ffffffffffffffffffffffffffffffffffffffff160361184c5761184781611e7c565b61188b565b8473ffffffffffffffffffffffffffffffffffffffff168473ffffffffffffffffffffffffffffffffffffffff161461188a576118898482611f4d565b5b5b5050505050565b6000808273ffffffffffffffffffffffffffffffffffffffff163b119050919050565b6060600060016118c484611fcc565b01905060008167ffffffffffffffff8111156118e3576118e26124eb565b5b6040519080825280601f01601f1916602001820160405280156119155781602001600182028036833780820191505090505b509050600082602001820190505b600115611978578080600190039150507f3031323334353637383961626364656600000000000000000000000000000000600a86061a8153600a858161196c5761196b613344565b5b04945060008503611923575b819350505050919050565b600073ffffffffffffffffffffffffffffffffffffffff168273ffffffffffffffffffffffffffffffffffffffff16036119f2576040517f08c379a00000000000000000000000000000000000000000000000000000000081526004016119e9906133bf565b60405180910390fd5b6119fb81611410565b15611a3b576040517f08c379a0000000000000000000000000000000000000000000000000000000008152600401611a329061342b565b60405180910390fd5b611a49600083836001611451565b611a5281611410565b15611a92576040517f08c379a0000000000000000000000000000000000000000000000000000000008152600401611a899061342b565b60405180910390fd5b6001600360008473ffffffffffffffffffffffffffffffffffffffff1673ffffffffffffffffffffffffffffffffffffffff16815260200190815260200160002060008282540192505081905550816002600083815260200190815260200160002060006101000a81548173ffffffffffffffffffffffffffffffffffffffff021916908373ffffffffffffffffffffffffffffffffffffffff160217905550808273ffffffffffffffffffffffffffffffffffffffff16600073ffffffffffffffffffffffffffffffffffffffff167fddf252ad1be2c89b69c2b068fc378daa952ba7f163c4a11628f55a4df523b3ef60405160405180910390a4611b9c600083836001611463565b5050565b6001811115611cc057600073ffffffffffffffffffffffffffffffffffffffff168473ffffffffffffffffffffffffffffffffffffffff1614611c345780600360008673ffffffffffffffffffffffffffffffffffffffff1673ffffffffffffffffffffffffffffffffffffffff1681526020019081526020016000206000828254611c2c919061347a565b925050819055505b600073ffffffffffffffffffffffffffffffffffffffff168373ffffffffffffffffffffffffffffffffffffffff1614611cbf5780600360008573ffffffffffffffffffffffffffffffffffffffff1673ffffffffffffffffffffffffffffffffffffffff1681526020019081526020016000206000828254611cb791906134ae565b925050819055505b5b50505050565b600980549050600a600083815260200190815260200160002081905550600981908060018154018082558091505060019003906000526020600020016000909190919091505550565b60006001611d1c846107bc565b611d26919061347a565b9050600060086000848152602001908152602001600020549050818114611e0b576000600760008673ffffffffffffffffffffffffffffffffffffffff1673ffffffffffffffffffffffffffffffffffffffff168152602001908152602001600020600084815260200190815260200160002054905080600760008773ffffffffffffffffffffffffffffffffffffffff1673ffffffffffffffffffffffffffffffffffffffff168152602001908152602001600020600084815260200190815260200160002081905550816008600083815260200190815260200160002081905550505b6008600084815260200190815260200160002060009055600760008573ffffffffffffffffffffffffffffffffffffffff1673ffffffffffffffffffffffffffffffffffffffff16815260200190815260200160002060008381526020019081526020016000206000905550505050565b60006001600980549050611e90919061347a565b90506000600a6000848152602001908152602001600020549050600060098381548110611ec057611ebf612b10565b5b906000526020600020015490508060098381548110611ee257611ee1612b10565b5b906000526020600020018190555081600a600083815260200190815260200160002081905550600a6000858152602001908152602001600020600090556009805480611f3157611f306134e2565b5b6001900381819060005260206000200160009055905550505050565b6000611f58836107bc565b905081600760008573ffffffffffffffffffffffffffffffffffffffff1673ffffffffffffffffffffffffffffffffffffffff168152602001908152602001600020600083815260200190815260200160002081905550806008600084815260200190815260200160002081905550505050565b600080600090507a184f03e93ff9f4daa797ed6e38ed64bf6a1f010000000000000000831061202a577a184f03e93ff9f4daa797ed6e38ed64bf6a1f01000000000000000083816120205761201f613344565b5b0492506040810190505b6d04ee2d6d415b85acef81000000008310612067576d04ee2d6d415b85acef8100000000838161205d5761205c613344565b5b0492506020810190505b662386f26fc10000831061209657662386f26fc10000838161208c5761208b613344565b5b0492506010810190505b6305f5e10083106120bf576305f5e10083816120b5576120b4613344565b5b0492506008810190505b61271083106120e45761271083816120da576120d9613344565b5b0492506004810190505b6064831061210757606483816120fd576120fc613344565b5b0492506002810190505b600a8310612116576001810190505b80915050919050565b6000604051905090565b600080fd5b600080fd5b60007fffffffff0000000000000000000000000000000000000000000000000000000082169050919050565b61216881612133565b811461217357600080fd5b50565b6000813590506121858161215f565b92915050565b6000602082840312156121a1576121a0612129565b5b60006121af84828501612176565b91505092915050565b60008115159050919050565b6121cd816121b8565b82525050565b60006020820190506121e860008301846121c4565b92915050565b600081519050919050565b600082825260208201905092915050565b60005b8381101561222857808201518184015260208101905061220d565b60008484015250505050565b6000601f19601f8301169050919050565b6000612250826121ee565b61225a81856121f9565b935061226a81856020860161220a565b61227381612234565b840191505092915050565b600060208201905081810360008301526122988184612245565b905092915050565b6000819050919050565b6122b3816122a0565b81146122be57600080fd5b50565b6000813590506122d0816122aa565b92915050565b6000602082840312156122ec576122eb612129565b5b60006122fa848285016122c1565b91505092915050565b600073ffffffffffffffffffffffffffffffffffffffff82169050919050565b600061232e82612303565b9050919050565b61233e81612323565b82525050565b60006020820190506123596000830184612335565b92915050565b61236881612323565b811461237357600080fd5b50565b6000813590506123858161235f565b92915050565b600080604083850312156123a2576123a1612129565b5b60006123b085828601612376565b92505060206123c1858286016122c1565b9150509250929050565b6123d4816122a0565b82525050565b60006020820190506123ef60008301846123cb565b92915050565b60008060006060848603121561240e5761240d612129565b5b600061241c86828701612376565b935050602061242d86828701612376565b925050604061243e868287016122c1565b9150509250925092565b60006020828403121561245e5761245d612129565b5b600061246c84828501612376565b91505092915050565b61247e816121b8565b811461248957600080fd5b50565b60008135905061249b81612475565b92915050565b600080604083850312156124b8576124b7612129565b5b60006124c685828601612376565b92505060206124d78582860161248c565b9150509250929050565b600080fd5b600080fd5b7f4e487b7100000000000000000000000000000000000000000000000000000000600052604160045260246000fd5b61252382612234565b810181811067ffffffffffffffff82111715612542576125416124eb565b5b80604052505050565b600061255561211f565b9050612561828261251a565b919050565b600067ffffffffffffffff821115612581576125806124eb565b5b61258a82612234565b9050602081019050919050565b82818337600083830152505050565b60006125b96125b484612566565b61254b565b9050828152602081018484840111156125d5576125d46124e6565b5b6125e0848285612597565b509392505050565b600082601f8301126125fd576125fc6124e1565b5b813561260d8482602086016125a6565b91505092915050565b600080600080608085870312156126305761262f612129565b5b600061263e87828801612376565b945050602061264f87828801612376565b9350506040612660878288016122c1565b925050606085013567ffffffffffffffff8111156126815761268061212e565b5b61268d878288016125e8565b91505092959194509250565b600067ffffffffffffffff8211156126b4576126b36124eb565b5b6126bd82612234565b9050602081019050919050565b60006126dd6126d884612699565b61254b565b9050828152602081018484840111156126f9576126f86124e6565b5b612704848285612597565b509392505050565b600082601f830112612721576127206124e1565b5b81356127318482602086016126ca565b91505092915050565b6000806040838503121561275157612750612129565b5b600061275f85828601612376565b925050602083013567ffffffffffffffff8111156127805761277f61212e565b5b61278c8582860161270c565b9150509250929050565b600080604083850312156127ad576127ac612129565b5b60006127bb85828601612376565b92505060206127cc85828601612376565b9150509250929050565b7f4e487b7100000000000000000000000000000000000000000000000000000000600052602260045260246000fd5b6000600282049050600182168061281d57607f821691505b6020821081036128305761282f6127d6565b5b50919050565b7f4552433732313a20617070726f76616c20746f2063757272656e74206f776e6560008201527f7200000000000000000000000000000000000000000000000000000000000000602082015250565b60006128926021836121f9565b915061289d82612836565b604082019050919050565b600060208201905081810360008301526128c181612885565b9050919050565b7f4552433732313a20617070726f76652063616c6c6572206973206e6f7420746f60008201527f6b656e206f776e6572206f7220617070726f76656420666f7220616c6c000000602082015250565b6000612924603d836121f9565b915061292f826128c8565b604082019050919050565b6000602082019050818103600083015261295381612917565b9050919050565b7f4552433732313a2063616c6c6572206973206e6f7420746f6b656e206f776e6560008201527f72206f7220617070726f76656400000000000000000000000000000000000000602082015250565b60006129b6602d836121f9565b91506129c18261295a565b604082019050919050565b600060208201905081810360008301526129e5816129a9565b9050919050565b7f455243373231456e756d657261626c653a206f776e657220696e646578206f7560008201527f74206f6620626f756e6473000000000000000000000000000000000000000000602082015250565b6000612a48602b836121f9565b9150612a53826129ec565b604082019050919050565b60006020820190508181036000830152612a7781612a3b565b9050919050565b7f455243373231456e756d657261626c653a20676c6f62616c20696e646578206f60008201527f7574206f6620626f756e64730000000000000000000000000000000000000000602082015250565b6000612ada602c836121f9565b9150612ae582612a7e565b604082019050919050565b60006020820190508181036000830152612b0981612acd565b9050919050565b7f4e487b7100000000000000000000000000000000000000000000000000000000600052603260045260246000fd5b7f4552433732313a20696e76616c696420746f6b656e2049440000000000000000600082015250565b6000612b756018836121f9565b9150612b8082612b3f565b602082019050919050565b60006020820190508181036000830152612ba481612b68565b9050919050565b7f4552433732313a2061646472657373207a65726f206973206e6f74206120766160008201527f6c6964206f776e65720000000000000000000000000000000000000000000000602082015250565b6000612c076029836121f9565b9150612c1282612bab565b604082019050919050565b60006020820190508181036000830152612c3681612bfa565b9050919050565b7f4552433732313a207472616e736665722066726f6d20696e636f72726563742060008201527f6f776e6572000000000000000000000000000000000000000000000000000000602082015250565b6000612c996025836121f9565b9150612ca482612c3d565b604082019050919050565b60006020820190508181036000830152612cc881612c8c565b9050919050565b7f4552433732313a207472616e7366657220746f20746865207a65726f2061646460008201527f7265737300000000000000000000000000000000000000000000000000000000602082015250565b6000612d2b6024836121f9565b9150612d3682612ccf565b604082019050919050565b60006020820190508181036000830152612d5a81612d1e565b9050919050565b7f4552433732313a20617070726f766520746f2063616c6c657200000000000000600082015250565b6000612d976019836121f9565b9150612da282612d61565b602082019050919050565b60006020820190508181036000830152612dc681612d8a565b9050919050565b7f4552433732313a207472616e7366657220746f206e6f6e20455243373231526560008201527f63656976657220696d706c656d656e7465720000000000000000000000000000602082015250565b6000612e296032836121f9565b9150612e3482612dcd565b604082019050919050565b60006020820190508181036000830152612e5881612e1c565b9050919050565b600081905092915050565b6000612e75826121ee565b612e7f8185612e5f565b9350612e8f81856020860161220a565b80840191505092915050565b6000612ea78285612e6a565b9150612eb38284612e6a565b91508190509392505050565b7f45524337323155524953746f726167653a2055524920736574206f66206e6f6e60008201527f6578697374656e7420746f6b656e000000000000000000000000000000000000602082015250565b6000612f1b602e836121f9565b9150612f2682612ebf565b604082019050919050565b60006020820190508181036000830152612f4a81612f0e565b9050919050565b60008190508160005260206000209050919050565b60006020601f8301049050919050565b600082821b905092915050565b600060088302612fb37fffffffffffffffffffffffffffffffffffffffffffffffffffffffffffffffff82612f76565b612fbd8683612f76565b95508019841693508086168417925050509392505050565b6000819050919050565b6000612ffa612ff5612ff0846122a0565b612fd5565b6122a0565b9050919050565b6000819050919050565b61301483612fdf565b61302861302082613001565b848454612f83565b825550505050565b600090565b61303d613030565b61304881848461300b565b505050565b5b8181101561306c57613061600082613035565b60018101905061304e565b5050565b601f8211156130b15761308281612f51565b61308b84612f66565b8101602085101561309a578190505b6130ae6130a685612f66565b83018261304d565b50505b505050565b600082821c905092915050565b60006130d4600019846008026130b6565b1980831691505092915050565b60006130ed83836130c3565b9150826002028217905092915050565b613106826121ee565b67ffffffffffffffff81111561311f5761311e6124eb565b5b6131298254612805565b613134828285613070565b600060209050601f8311600181146131675760008415613155578287015190505b61315f85826130e1565b8655506131c7565b601f19841661317586612f51565b60005b8281101561319d57848901518255600182019150602085019450602081019050613178565b868310156131ba57848901516131b6601f8916826130c3565b8355505b6001600288020188555050505b505050505050565b600081519050919050565b600082825260208201905092915050565b60006131f6826131cf565b61320081856131da565b935061321081856020860161220a565b61321981612234565b840191505092915050565b60006080820190506132396000830187612335565b6132466020830186612335565b61325360408301856123cb565b818103606083015261326581846131eb565b905095945050505050565b60008151905061327f8161215f565b92915050565b60006020828403121561329b5761329a612129565b5b60006132a984828501613270565b91505092915050565b7f455243373231456e756d657261626c653a20636f6e736563757469766520747260008201527f616e7366657273206e6f7420737570706f727465640000000000000000000000602082015250565b600061330e6035836121f9565b9150613319826132b2565b604082019050919050565b6000602082019050818103600083015261333d81613301565b9050919050565b7f4e487b7100000000000000000000000000000000000000000000000000000000600052601260045260246000fd5b7f4552433732313a206d696e7420746f20746865207a65726f2061646472657373600082015250565b60006133a96020836121f9565b91506133b482613373565b602082019050919050565b600060208201905081810360008301526133d88161339c565b9050919050565b7f4552433732313a20746f6b656e20616c7265616479206d696e74656400000000600082015250565b6000613415601c836121f9565b9150613420826133df565b602082019050919050565b6000602082019050818103600083015261344481613408565b9050919050565b7f4e487b7100000000000000000000000000000000000000000000000000000000600052601160045260246000fd5b6000613485826122a0565b9150613490836122a0565b92508282039050818111156134a8576134a761344b565b5b92915050565b60006134b9826122a0565b91506134c4836122a0565b92508282019050808211156134dc576134db61344b565b5b92915050565b7f4e487b7100000000000000000000000000000000000000000000000000000000600052603160045260246000fdfea264697066735822122023c5c0317a501bc57e39beaa9f470c4130f255442a1f290658b48068de209bb064736f6c63430008110033",
  "linkReferences": {},
  "deployedLinkReferences": {}
}